909 09900099999990099999909999099B099909HARRIS BANK LION POWER DEMO CUST              99090909
9900LION PWR       99090909.b          9999009999PPDLION SALARY120130120130   0990009990000009
9900990099009090909          0000000000SC24008        PARTICIPANT 1		0990009990000009
9900990099009090909          0000000000HA67664        PARTICIPANT 2		0990009990000009
9900990099009090909          0000000000MC00346        PARTICIPANT 3	      0990009990000009
9900990099009090909          0000000000LA23189        PARTICIPANT 4           0990009990000009
9900990099009090909          0000000000OE06044        PARTICIPANT 5           0990009990000009
9900990099009090909          0000000000HA23266        PARTICIPANT 6           0990009990000009
9900990099009090909          0000000000LO46269        PARTICIPANT 7           0990009990000009
9900990099009090909          0000000000               LION PWER               0990009990000009
990000000909099999990000000000000000000000009999009999                        0990009990000009
9000009000009000000090909999999000000000000000000000000                                       
9999999999999999999999999999999999999999999999999999999999999999999999999999999999999999999999
9999999999999999999999999999999999999999999999999999999999999999999999999999999999999999999999
9999999999999999999999999999999999999999999999999999999999999999999999999999999999999999999999
9999999999999999999999999999999999999999999999999999999999999999999999999999999999999999999999
9999999999999999999999999999999999999999999999999999999999999999999999999999999999999999999999
9999999999999999999999999999999999999999999999999999999999999999999999999999999999999999999999
9999999999999999999999999999999999999999999999999999999999999999999999999999999999999999999999
9999999999999999999999999999999999999999999999999999999999999999999999999999999999999999999999
